{
  "contractName": "NFTMarketPlace",
  "abi": [
    {
      "anonymous": false,
      "inputs": [
        {
          "indexed": false,
          "internalType": "uint256",
          "name": "id",
          "type": "uint256"
        },
        {
          "indexed": false,
          "internalType": "uint256",
          "name": "tokenId",
          "type": "uint256"
        },
        {
          "indexed": false,
          "internalType": "address",
          "name": "tokenAddress",
          "type": "address"
        },
        {
          "indexed": false,
          "internalType": "uint256",
          "name": "askingPrice",
          "type": "uint256"
        },
        {
          "indexed": false,
          "internalType": "bool",
          "name": "bidItem",
          "type": "bool"
        }
      ],
      "name": "ItemAdded",
      "type": "event"
    },
    {
      "anonymous": false,
      "inputs": [
        {
          "indexed": false,
          "internalType": "uint256",
          "name": "id",
          "type": "uint256"
        },
        {
          "indexed": false,
          "internalType": "address",
          "name": "buyer",
          "type": "address"
        },
        {
          "indexed": false,
          "internalType": "uint256",
          "name": "askingPrice",
          "type": "uint256"
        }
      ],
      "name": "ItemSold",
      "type": "event"
    },
    {
      "inputs": [
        {
          "internalType": "uint256",
          "name": "",
          "type": "uint256"
        }
      ],
      "name": "itemsForSale",
      "outputs": [
        {
          "internalType": "uint256",
          "name": "id",
          "type": "uint256"
        },
        {
          "internalType": "address",
          "name": "tokenAddress",
          "type": "address"
        },
        {
          "internalType": "uint256",
          "name": "tokenId",
          "type": "uint256"
        },
        {
          "internalType": "address payable",
          "name": "seller",
          "type": "address"
        },
        {
          "internalType": "uint256",
          "name": "askingPrice",
          "type": "uint256"
        },
        {
          "internalType": "bool",
          "name": "isSold",
          "type": "bool"
        },
        {
          "internalType": "bool",
          "name": "bidItem",
          "type": "bool"
        },
        {
          "internalType": "uint256",
          "name": "bidPrice",
          "type": "uint256"
        },
        {
          "internalType": "address",
          "name": "bidderAddress",
          "type": "address"
        }
      ],
      "stateMutability": "view",
      "type": "function"
    },
    {
      "inputs": [
        {
          "internalType": "uint256",
          "name": "tokenId",
          "type": "uint256"
        },
        {
          "internalType": "address",
          "name": "tokenAddress",
          "type": "address"
        },
        {
          "internalType": "uint256",
          "name": "askingPrice",
          "type": "uint256"
        },
        {
          "internalType": "bool",
          "name": "bidItem",
          "type": "bool"
        }
      ],
      "name": "addItemToMarket",
      "outputs": [
        {
          "internalType": "uint256",
          "name": "",
          "type": "uint256"
        }
      ],
      "stateMutability": "nonpayable",
      "type": "function"
    },
    {
      "inputs": [
        {
          "internalType": "uint256",
          "name": "id",
          "type": "uint256"
        }
      ],
      "name": "BuyItem",
      "outputs": [],
      "stateMutability": "payable",
      "type": "function"
    },
    {
      "inputs": [
        {
          "internalType": "uint256",
          "name": "aucItemId",
          "type": "uint256"
        }
      ],
      "name": "PlaceABid",
      "outputs": [],
      "stateMutability": "payable",
      "type": "function"
    },
    {
      "inputs": [
        {
          "internalType": "uint256",
          "name": "aucItemId",
          "type": "uint256"
        }
      ],
      "name": "withdrawPrevBid",
      "outputs": [
        {
          "internalType": "bool",
          "name": "",
          "type": "bool"
        }
      ],
      "stateMutability": "nonpayable",
      "type": "function"
    },
    {
      "inputs": [
        {
          "internalType": "uint256",
          "name": "aucItemId",
          "type": "uint256"
        }
      ],
      "name": "EndAuction",
      "outputs": [
        {
          "internalType": "bool",
          "name": "",
          "type": "bool"
        }
      ],
      "stateMutability": "payable",
      "type": "function"
    }
  ],
  "bytecode": "0x608060405234801561001057600080fd5b50612e2c806100206000396000f3fe6080604052600436106100555760003560e01c8063092d0afc1461005a578063170f872f1461009f5780634982ae51146100dc578063661663f91461010c578063884c644014610128578063d3af738a14610144575b600080fd5b34801561006657600080fd5b50610081600480360381019061007c919061259f565b610181565b6040516100969998979695949392919061297d565b60405180910390f35b3480156100ab57600080fd5b506100c660048036038101906100c191906125cc565b610259565b6040516100d3919061292b565b60405180910390f35b6100f660048036038101906100f1919061259f565b61099b565b60405161010391906127f0565b60405180910390f35b6101266004803603810190610121919061259f565b61148f565b005b610142600480360381019061013d919061259f565b611bf0565b005b34801561015057600080fd5b5061016b6004803603810190610166919061259f565b6123c5565b60405161017891906127f0565b60405180910390f35b6000818154811061019157600080fd5b90600052602060002090600802016000915090508060000154908060010160009054906101000a900473ffffffffffffffffffffffffffffffffffffffff16908060020154908060030160009054906101000a900473ffffffffffffffffffffffffffffffffffffffff16908060040154908060050160009054906101000a900460ff16908060050160019054906101000a900460ff16908060060154908060070160009054906101000a900473ffffffffffffffffffffffffffffffffffffffff16905089565b6000838560008290503373ffffffffffffffffffffffffffffffffffffffff168173ffffffffffffffffffffffffffffffffffffffff16636352211e846040518263ffffffff1660e01b81526004016102b2919061292b565b60206040518083038186803b1580156102ca57600080fd5b505afa1580156102de573d6000803e3d6000fd5b505050506040513d601f19601f820116820180604052508101906103029190612572565b73ffffffffffffffffffffffffffffffffffffffff161461032257600080fd5b868860008290503073ffffffffffffffffffffffffffffffffffffffff168173ffffffffffffffffffffffffffffffffffffffff1663081812fc846040518263ffffffff1660e01b8152600401610379919061292b565b60206040518083038186803b15801561039157600080fd5b505afa1580156103a5573d6000803e3d6000fd5b505050506040513d601f19601f820116820180604052508101906103c99190612572565b73ffffffffffffffffffffffffffffffffffffffff16146103e957600080fd5b60001515600160008c73ffffffffffffffffffffffffffffffffffffffff1673ffffffffffffffffffffffffffffffffffffffff16815260200190815260200160002060008d815260200190815260200160002060009054906101000a900460ff1615151461048d576040517f08c379a00000000000000000000000000000000000000000000000000000000081526004016104849061282b565b60405180910390fd5b6000600260008d81526020019081526020016000205414156107bc57600060016000805490506104bd9190612a6e565b905060006040518061012001604052808381526020018d73ffffffffffffffffffffffffffffffffffffffff1681526020018e81526020013373ffffffffffffffffffffffffffffffffffffffff1681526020018c81526020016000151581526020018b1515815260200160008152602001600073ffffffffffffffffffffffffffffffffffffffff1681525090806001815401808255809150506001900390600052602060002090600802016000909190919091506000820151816000015560208201518160010160006101000a81548173ffffffffffffffffffffffffffffffffffffffff021916908373ffffffffffffffffffffffffffffffffffffffff1602179055506040820151816002015560608201518160030160006101000a81548173ffffffffffffffffffffffffffffffffffffffff021916908373ffffffffffffffffffffffffffffffffffffffff1602179055506080820151816004015560a08201518160050160006101000a81548160ff02191690831515021790555060c08201518160050160016101000a81548160ff02191690831515021790555060e082015181600601556101008201518160070160006101000a81548173ffffffffffffffffffffffffffffffffffffffff021916908373ffffffffffffffffffffffffffffffffffffffff160217905550505060018060008d73ffffffffffffffffffffffffffffffffffffffff1673ffffffffffffffffffffffffffffffffffffffff16815260200190815260200160002060008e815260200190815260200160002060006101000a81548160ff02191690831515021790555080600260008e8152602001908152602001600020819055508060006001836107439190612ac4565b8154811061075457610753612be6565b5b9060005260206000209060080201600001541461077457610773612b88565b5b7fe4a54a91e473f57d7d37432109f99fe1114825d4156a5fc960747848d9326c60818d8d8d8d6040516107ab959493929190612a0a565b60405180910390a18097505061098d565b6000806001600260008f8152602001908152602001600020546107df9190612ac4565b815481106107f0576107ef612be6565b5b906000526020600020906008020160050160006101000a81548160ff0219169083151502179055508760006001600260008f81526020019081526020016000205461083b9190612ac4565b8154811061084c5761084b612be6565b5b906000526020600020906008020160050160016101000a81548160ff0219169083151502179055508860006001600260008f8152602001908152602001600020546108979190612ac4565b815481106108a8576108a7612be6565b5b906000526020600020906008020160040181905550600260008c81526020019081526020016000205460006001600260008f8152602001908152602001600020546108f39190612ac4565b8154811061090457610903612be6565b5b9060005260206000209060080201600001541461092457610923612b88565b5b7fe4a54a91e473f57d7d37432109f99fe1114825d4156a5fc960747848d9326c60600260008d8152602001908152602001600020548c8c8c8c60405161096e959493929190612a0a565b60405180910390a1600260008c81526020019081526020016000205496505b505050505050949350505050565b6000816000805490506001826109b19190612ac4565b1080156109ee57508060006001836109c99190612ac4565b815481106109da576109d9612be6565b5b906000526020600020906008020160000154145b610a2d576040517f08c379a0000000000000000000000000000000000000000000000000000000008152600401610a24906128eb565b60405180910390fd5b82600080600183610a3e9190612ac4565b81548110610a4f57610a4e612be6565b5b906000526020600020906008020160010160009054906101000a900473ffffffffffffffffffffffffffffffffffffffff1690503373ffffffffffffffffffffffffffffffffffffffff168173ffffffffffffffffffffffffffffffffffffffff16636352211e6000600186610ac59190612ac4565b81548110610ad657610ad5612be6565b5b9060005260206000209060080201600201546040518263ffffffff1660e01b8152600401610b04919061292b565b60206040518083038186803b158015610b1c57600080fd5b505afa158015610b30573d6000803e3d6000fd5b505050506040513d601f19601f82011682018060405250810190610b549190612572565b73ffffffffffffffffffffffffffffffffffffffff1614610b7457600080fd5b84600015156000600183610b889190612ac4565b81548110610b9957610b98612be6565b5b906000526020600020906008020160050160009054906101000a900460ff16151514610bfa576040517f08c379a0000000000000000000000000000000000000000000000000000000008152600401610bf19061290b565b60405180910390fd5b85600115156000600183610c0e9190612ac4565b81548110610c1f57610c1e612be6565b5b906000526020600020906008020160050160019054906101000a900460ff16151514610c80576040517f08c379a0000000000000000000000000000000000000000000000000000000008152600401610c77906128ab565b60405180910390fd5b6000600188610c8f9190612ac4565b81548110610ca057610c9f612be6565b5b906000526020600020906008020160010160009054906101000a900473ffffffffffffffffffffffffffffffffffffffff166000600189610ce19190612ac4565b81548110610cf257610cf1612be6565b5b90600052602060002090600802016002015460008290503073ffffffffffffffffffffffffffffffffffffffff168173ffffffffffffffffffffffffffffffffffffffff1663081812fc846040518263ffffffff1660e01b8152600401610d59919061292b565b60206040518083038186803b158015610d7157600080fd5b505afa158015610d85573d6000803e3d6000fd5b505050506040513d601f19601f82011682018060405250810190610da99190612572565b73ffffffffffffffffffffffffffffffffffffffff1614610dc957600080fd5b600060018b610dd89190612ac4565b81548110610de957610de8612be6565b5b906000526020600020906008020160040154600060018c610e0a9190612ac4565b81548110610e1b57610e1a612be6565b5b90600052602060002090600802016006015411610e6d576040517f08c379a0000000000000000000000000000000000000000000000000000000008152600401610e64906128cb565b60405180910390fd5b600060018b610e7c9190612ac4565b81548110610e8d57610e8c612be6565b5b906000526020600020906008020160030160009054906101000a900473ffffffffffffffffffffffffffffffffffffffff1673ffffffffffffffffffffffffffffffffffffffff166108fc600060018d610ee79190612ac4565b81548110610ef857610ef7612be6565b5b9060005260206000209060080201600601549081150290604051600060405180830381858888f19350505050610f315760009850611482565b600060018b610f409190612ac4565b81548110610f5157610f50612be6565b5b906000526020600020906008020160010160009054906101000a900473ffffffffffffffffffffffffffffffffffffffff1673ffffffffffffffffffffffffffffffffffffffff166342842e0e600060018d610fad9190612ac4565b81548110610fbe57610fbd612be6565b5b906000526020600020906008020160030160009054906101000a900473ffffffffffffffffffffffffffffffffffffffff16600060018e610fff9190612ac4565b815481106110105761100f612be6565b5b906000526020600020906008020160070160009054906101000a900473ffffffffffffffffffffffffffffffffffffffff16600060018f6110519190612ac4565b8154811061106257611061612be6565b5b9060005260206000209060080201600201546040518463ffffffff1660e01b8152600401611092939291906127b9565b600060405180830381600087803b1580156110ac57600080fd5b505af11580156110c0573d6000803e3d6000fd5b505050506000600160008060018e6110d89190612ac4565b815481106110e9576110e8612be6565b5b906000526020600020906008020160010160009054906101000a900473ffffffffffffffffffffffffffffffffffffffff1673ffffffffffffffffffffffffffffffffffffffff1673ffffffffffffffffffffffffffffffffffffffff16815260200190815260200160002060008060018e6111659190612ac4565b8154811061117657611175612be6565b5b906000526020600020906008020160020154815260200190815260200160002060006101000a81548160ff0219169083151502179055506001600060018c6111be9190612ac4565b815481106111cf576111ce612be6565b5b906000526020600020906008020160050160006101000a81548160ff0219169083151502179055506000600360008060018e61120b9190612ac4565b8154811061121c5761121b612be6565b5b906000526020600020906008020160070160009054906101000a900473ffffffffffffffffffffffffffffffffffffffff1673ffffffffffffffffffffffffffffffffffffffff1673ffffffffffffffffffffffffffffffffffffffff16815260200190815260200160002060008060018e6112989190612ac4565b815481106112a9576112a8612be6565b5b906000526020600020906008020160020154815260200190815260200160002081905550600060018b6112dc9190612ac4565b815481106112ed576112ec612be6565b5b906000526020600020906008020160070160009054906101000a900473ffffffffffffffffffffffffffffffffffffffff16600060018c61132e9190612ac4565b8154811061133f5761133e612be6565b5b906000526020600020906008020160030160006101000a81548173ffffffffffffffffffffffffffffffffffffffff021916908373ffffffffffffffffffffffffffffffffffffffff16021790555060008060018c61139e9190612ac4565b815481106113af576113ae612be6565b5b906000526020600020906008020160070160006101000a81548173ffffffffffffffffffffffffffffffffffffffff021916908373ffffffffffffffffffffffffffffffffffffffff16021790555060008060018c61140e9190612ac4565b8154811061141f5761141e612be6565b5b90600052602060002090600802016006018190555060008060018c6114449190612ac4565b8154811061145557611454612be6565b5b906000526020600020906008020160050160016101000a81548160ff021916908315150217905550600198505b5050505050505050919050565b806000805490506001826114a39190612ac4565b1080156114e057508060006001836114bb9190612ac4565b815481106114cc576114cb612be6565b5b906000526020600020906008020160000154145b61151f576040517f08c379a0000000000000000000000000000000000000000000000000000000008152600401611516906128eb565b60405180910390fd5b816000151560006001836115339190612ac4565b8154811061154457611543612be6565b5b906000526020600020906008020160050160009054906101000a900460ff161515146115a5576040517f08c379a000000000000000000000000000000000000000000000000000000000815260040161159c9061290b565b60405180910390fd5b826001151560006001836115b99190612ac4565b815481106115ca576115c9612be6565b5b906000526020600020906008020160050160019054906101000a900460ff1615151461162b576040517f08c379a0000000000000000000000000000000000000000000000000000000008152600401611622906128ab565b60405180910390fd5b600060018561163a9190612ac4565b8154811061164b5761164a612be6565b5b906000526020600020906008020160010160009054906101000a900473ffffffffffffffffffffffffffffffffffffffff16600060018661168c9190612ac4565b8154811061169d5761169c612be6565b5b90600052602060002090600802016002015460008290503073ffffffffffffffffffffffffffffffffffffffff168173ffffffffffffffffffffffffffffffffffffffff1663081812fc846040518263ffffffff1660e01b8152600401611704919061292b565b60206040518083038186803b15801561171c57600080fd5b505afa158015611730573d6000803e3d6000fd5b505050506040513d601f19601f820116820180604052508101906117549190612572565b73ffffffffffffffffffffffffffffffffffffffff161461177457600080fd5b600080600360003373ffffffffffffffffffffffffffffffffffffffff1673ffffffffffffffffffffffffffffffffffffffff16815260200190815260200160002060008060018c6117c69190612ac4565b815481106117d7576117d6612be6565b5b906000526020600020906008020160000154815260200190815260200160002054141561180657349050611895565b600360003373ffffffffffffffffffffffffffffffffffffffff1673ffffffffffffffffffffffffffffffffffffffff16815260200190815260200160002060008060018b6118559190612ac4565b8154811061186657611865612be6565b5b906000526020600020906008020160000154815260200190815260200160002054346118929190612a6e565b90505b60006001896118a49190612ac4565b815481106118b5576118b4612be6565b5b9060005260206000209060080201600401548111611908576040517f08c379a00000000000000000000000000000000000000000000000000000000081526004016118ff9061286b565b60405180910390fd5b60006001896119179190612ac4565b8154811061192857611927612be6565b5b906000526020600020906008020160060154811161197b576040517f08c379a00000000000000000000000000000000000000000000000000000000081526004016119729061280b565b60405180910390fd5b6000600360003373ffffffffffffffffffffffffffffffffffffffff1673ffffffffffffffffffffffffffffffffffffffff16815260200190815260200160002060008060018c6119cc9190612ac4565b815481106119dd576119dc612be6565b5b90600052602060002090600802016000015481526020019081526020016000208190555060008060018a611a119190612ac4565b81548110611a2257611a21612be6565b5b90600052602060002090600802016006015414611b40576000600189611a489190612ac4565b81548110611a5957611a58612be6565b5b906000526020600020906008020160060154600360008060018c611a7d9190612ac4565b81548110611a8e57611a8d612be6565b5b906000526020600020906008020160070160009054906101000a900473ffffffffffffffffffffffffffffffffffffffff1673ffffffffffffffffffffffffffffffffffffffff1673ffffffffffffffffffffffffffffffffffffffff16815260200190815260200160002060008060018c611b0a9190612ac4565b81548110611b1b57611b1a612be6565b5b9060005260206000209060080201600001548152602001908152602001600020819055505b80600060018a611b509190612ac4565b81548110611b6157611b60612be6565b5b90600052602060002090600802016006018190555033600060018a611b869190612ac4565b81548110611b9757611b96612be6565b5b906000526020600020906008020160070160006101000a81548173ffffffffffffffffffffffffffffffffffffffff021916908373ffffffffffffffffffffffffffffffffffffffff1602179055505050505050505050565b80600080549050600182611c049190612ac4565b108015611c415750806000600183611c1c9190612ac4565b81548110611c2d57611c2c612be6565b5b906000526020600020906008020160000154145b611c80576040517f08c379a0000000000000000000000000000000000000000000000000000000008152600401611c77906128eb565b60405180910390fd5b81600015156000600183611c949190612ac4565b81548110611ca557611ca4612be6565b5b906000526020600020906008020160050160009054906101000a900460ff16151514611d06576040517f08c379a0000000000000000000000000000000000000000000000000000000008152600401611cfd9061290b565b60405180910390fd5b82600015156000600183611d1a9190612ac4565b81548110611d2b57611d2a612be6565b5b906000526020600020906008020160050160019054906101000a900460ff16151514611d8c576040517f08c379a0000000000000000000000000000000000000000000000000000000008152600401611d839061284b565b60405180910390fd5b6000600185611d9b9190612ac4565b81548110611dac57611dab612be6565b5b906000526020600020906008020160010160009054906101000a900473ffffffffffffffffffffffffffffffffffffffff166000600186611ded9190612ac4565b81548110611dfe57611dfd612be6565b5b90600052602060002090600802016002015460008290503073ffffffffffffffffffffffffffffffffffffffff168173ffffffffffffffffffffffffffffffffffffffff1663081812fc846040518263ffffffff1660e01b8152600401611e65919061292b565b60206040518083038186803b158015611e7d57600080fd5b505afa158015611e91573d6000803e3d6000fd5b505050506040513d601f19601f82011682018060405250810190611eb59190612572565b73ffffffffffffffffffffffffffffffffffffffff1614611ed557600080fd5b6000600188611ee49190612ac4565b81548110611ef557611ef4612be6565b5b906000526020600020906008020160040154341015611f49576040517f08c379a0000000000000000000000000000000000000000000000000000000008152600401611f409061288b565b60405180910390fd5b6000600188611f589190612ac4565b81548110611f6957611f68612be6565b5b906000526020600020906008020160030160009054906101000a900473ffffffffffffffffffffffffffffffffffffffff1673ffffffffffffffffffffffffffffffffffffffff163373ffffffffffffffffffffffffffffffffffffffff161415611fd357600080fd5b60016000600189611fe49190612ac4565b81548110611ff557611ff4612be6565b5b906000526020600020906008020160050160006101000a81548160ff0219169083151502179055506000600160008060018b6120319190612ac4565b8154811061204257612041612be6565b5b906000526020600020906008020160010160009054906101000a900473ffffffffffffffffffffffffffffffffffffffff1673ffffffffffffffffffffffffffffffffffffffff1673ffffffffffffffffffffffffffffffffffffffff16815260200190815260200160002060008060018b6120be9190612ac4565b815481106120cf576120ce612be6565b5b906000526020600020906008020160020154815260200190815260200160002060006101000a81548160ff02191690831515021790555060006001886121159190612ac4565b8154811061212657612125612be6565b5b906000526020600020906008020160010160009054906101000a900473ffffffffffffffffffffffffffffffffffffffff1673ffffffffffffffffffffffffffffffffffffffff166342842e0e600060018a6121829190612ac4565b8154811061219357612192612be6565b5b906000526020600020906008020160030160009054906101000a900473ffffffffffffffffffffffffffffffffffffffff1633600060018c6121d59190612ac4565b815481106121e6576121e5612be6565b5b9060005260206000209060080201600201546040518463ffffffff1660e01b8152600401612216939291906127b9565b600060405180830381600087803b15801561223057600080fd5b505af1158015612244573d6000803e3d6000fd5b5050505060006001886122579190612ac4565b8154811061226857612267612be6565b5b906000526020600020906008020160030160009054906101000a900473ffffffffffffffffffffffffffffffffffffffff1673ffffffffffffffffffffffffffffffffffffffff166108fc349081150290604051600060405180830381858888f193505050501580156122df573d6000803e3d6000fd5b503360006001896122f09190612ac4565b8154811061230157612300612be6565b5b906000526020600020906008020160030160006101000a81548173ffffffffffffffffffffffffffffffffffffffff021916908373ffffffffffffffffffffffffffffffffffffffff1602179055507fa574c741071bb18f51fa88c17aeefec514bebf670ca22a3736fba6504ecbb7638733600060018b6123829190612ac4565b8154811061239357612392612be6565b5b9060005260206000209060080201600401546040516123b493929190612946565b60405180910390a150505050505050565b600080600360003373ffffffffffffffffffffffffffffffffffffffff1673ffffffffffffffffffffffffffffffffffffffff16815260200190815260200160002060008481526020019081526020016000205490506000811115612513576000600360003373ffffffffffffffffffffffffffffffffffffffff1673ffffffffffffffffffffffffffffffffffffffff1681526020019081526020016000206000858152602001908152602001600020819055503373ffffffffffffffffffffffffffffffffffffffff166108fc829081150290604051600060405180830381858888f193505050506125125780600360003373ffffffffffffffffffffffffffffffffffffffff1673ffffffffffffffffffffffffffffffffffffffff1681526020019081526020016000206000858152602001908152602001600020819055506000915050612519565b5b60019150505b919050565b60008135905061252d81612db1565b92915050565b60008151905061254281612db1565b92915050565b60008135905061255781612dc8565b92915050565b60008135905061256c81612ddf565b92915050565b60006020828403121561258857612587612c15565b5b600061259684828501612533565b91505092915050565b6000602082840312156125b5576125b4612c15565b5b60006125c38482850161255d565b91505092915050565b600080600080608085870312156125e6576125e5612c15565b5b60006125f48782880161255d565b94505060206126058782880161251e565b93505060406126168782880161255d565b925050606061262787828801612548565b91505092959194509250565b61263c81612b52565b82525050565b61264b81612b0a565b82525050565b61265a81612af8565b82525050565b61266981612b1c565b82525050565b600061267c601f83612a5d565b915061268782612c1a565b602082019050919050565b600061269f601b83612a5d565b91506126aa82612c43565b602082019050919050565b60006126c2601883612a5d565b91506126cd82612c6c565b602082019050919050565b60006126e5602683612a5d565b91506126f082612c95565b604082019050919050565b6000612708601483612a5d565b915061271382612ce4565b602082019050919050565b600061272b601483612a5d565b915061273682612d0d565b602082019050919050565b600061274e600e83612a5d565b915061275982612d36565b602082019050919050565b6000612771601383612a5d565b915061277c82612d5f565b602082019050919050565b6000612794601183612a5d565b915061279f82612d88565b602082019050919050565b6127b381612b48565b82525050565b60006060820190506127ce6000830186612633565b6127db6020830185612651565b6127e860408301846127aa565b949350505050565b60006020820190506128056000830184612660565b92915050565b600060208201905081810360008301526128248161266f565b9050919050565b6000602082019050818103600083015261284481612692565b9050919050565b60006020820190508181036000830152612864816126b5565b9050919050565b60006020820190508181036000830152612884816126d8565b9050919050565b600060208201905081810360008301526128a4816126fb565b9050919050565b600060208201905081810360008301526128c48161271e565b9050919050565b600060208201905081810360008301526128e481612741565b9050919050565b6000602082019050818103600083015261290481612764565b9050919050565b6000602082019050818103600083015261292481612787565b9050919050565b600060208201905061294060008301846127aa565b92915050565b600060608201905061295b60008301866127aa565b6129686020830185612651565b61297560408301846127aa565b949350505050565b600061012082019050612993600083018c6127aa565b6129a0602083018b612651565b6129ad604083018a6127aa565b6129ba6060830189612642565b6129c760808301886127aa565b6129d460a0830187612660565b6129e160c0830186612660565b6129ee60e08301856127aa565b6129fc610100830184612651565b9a9950505050505050505050565b600060a082019050612a1f60008301886127aa565b612a2c60208301876127aa565b612a396040830186612651565b612a4660608301856127aa565b612a536080830184612660565b9695505050505050565b600082825260208201905092915050565b6000612a7982612b48565b9150612a8483612b48565b9250827fffffffffffffffffffffffffffffffffffffffffffffffffffffffffffffffff03821115612ab957612ab8612bb7565b5b828201905092915050565b6000612acf82612b48565b9150612ada83612b48565b925082821015612aed57612aec612bb7565b5b828203905092915050565b6000612b0382612b28565b9050919050565b6000612b1582612b28565b9050919050565b60008115159050919050565b600073ffffffffffffffffffffffffffffffffffffffff82169050919050565b6000819050919050565b6000612b5d82612b64565b9050919050565b6000612b6f82612b76565b9050919050565b6000612b8182612b28565b9050919050565b7f4e487b7100000000000000000000000000000000000000000000000000000000600052600160045260246000fd5b7f4e487b7100000000000000000000000000000000000000000000000000000000600052601160045260246000fd5b7f4e487b7100000000000000000000000000000000000000000000000000000000600052603260045260246000fd5b600080fd5b7f546865726520697320616c726561647920612068696768657220707269636500600082015250565b7f4974656d20697320616c726561647920757020666f722073616c650000000000600082015250565b7f4974656d206e6f7420666f7220696e7374616e74206275790000000000000000600082015250565b7f546865726520697320616c72656164792061206869676865722061736b696e6760008201527f2070726963650000000000000000000000000000000000000000000000000000602082015250565b7f4e6f7420656e6f7567682066756e647320736574000000000000000000000000600082015250565b7f4974656d206e6f7420666f722062696464696e67000000000000000000000000600082015250565b7f4e6f204269647320457869737421000000000000000000000000000000000000600082015250565b7f436f756c64206e6f742066696e64204974656d00000000000000000000000000600082015250565b7f4974656d20616c726561647920736f6c64000000000000000000000000000000600082015250565b612dba81612af8565b8114612dc557600080fd5b50565b612dd181612b1c565b8114612ddc57600080fd5b50565b612de881612b48565b8114612df357600080fd5b5056fea2646970667358221220741df0a3014a9a198e35692df57179bd4175d61918a80331c97365def12f07a364736f6c63430008060033",
  "immutableReferences": {},
  "source": "// SPDX-License-Identifier: GPL-3.0\r\n\r\npragma solidity ^0.8.0;\r\nimport \"../node_modules/@openzeppelin/contracts/token/ERC721/IERC721.sol\";\r\n\r\ncontract NFTMarketPlace {\r\n    struct AuctionItem {\r\n        uint256 id;\r\n        address tokenAddress;\r\n        uint256 tokenId;\r\n        address payable seller;\r\n        uint256 askingPrice;\r\n        bool isSold;\r\n        bool bidItem;\r\n        uint256 bidPrice;\r\n        address bidderAddress;\r\n    }\r\n\r\n    AuctionItem[] public itemsForSale;\r\n    \r\n    //to check if item is open to market\r\n    mapping (address => mapping (uint256 => bool)) activeItems;\r\n\r\n    //to get auctionItemId from tokenId\r\n    mapping (uint256 => uint256) auctionItemId;\r\n\r\n    //eth to be returned to an address for an specific bid\r\n    mapping (address => mapping (uint256 => uint256)) pendingReturns;\r\n\r\n    event ItemAdded(uint id, uint tokenId, address tokenAddress, uint256 askingPrice, bool bidItem);\r\n    event ItemSold(uint id, address buyer, uint256 askingPrice);\r\n\r\n    modifier OnlyItemOwner(address tokenAddress, uint256 tokenId){\r\n        IERC721 tokenContract = IERC721(tokenAddress);\r\n        require(tokenContract.ownerOf(tokenId) == msg.sender);\r\n        _;\r\n    }\r\n    modifier OnlyItemOwnerAuc(uint256 aucItemId){\r\n        IERC721 tokenContract = IERC721(itemsForSale[aucItemId-1].tokenAddress);\r\n        require(tokenContract.ownerOf(itemsForSale[aucItemId-1].tokenId) == msg.sender);\r\n        _;\r\n    }\r\n    modifier HasTransferApproval(address tokenAddress, uint256 tokenId){\r\n        IERC721 tokenContract = IERC721(tokenAddress);\r\n        require(tokenContract.getApproved(tokenId) == address(this));\r\n        _;\r\n    }\r\n    modifier ItemExists(uint256 id){\r\n        require(id-1 < itemsForSale.length && itemsForSale[id-1].id == id, \"Could not find Item\");\r\n        _;\r\n    }\r\n    modifier IsForSale(uint256 id){\r\n        require(itemsForSale[id-1].isSold == false,\"Item already sold\");\r\n        _;\r\n    }\r\n    modifier IsForInstantBuy(uint256 id){\r\n        require(itemsForSale[id-1].bidItem == false, \"Item not for instant buy\");\r\n        _;\r\n    }\r\n    modifier IsForBidding(uint256 id){\r\n        require(itemsForSale[id-1].bidItem == true, \"Item not for bidding\");\r\n        _;\r\n    }\r\n    function addItemToMarket(uint256 tokenId, address tokenAddress, uint256 askingPrice, bool bidItem) OnlyItemOwner(tokenAddress, tokenId) HasTransferApproval(tokenAddress, tokenId) external returns(uint256) {\r\n        require(activeItems[tokenAddress][tokenId] == false, \"Item is already up for sale\");\r\n\r\n        if (auctionItemId[tokenId] == 0){ //item is being added for the first time in marketplace\r\n            uint256 newItemId = itemsForSale.length + 1;\r\n            itemsForSale.push(AuctionItem(newItemId, tokenAddress, tokenId, payable(msg.sender), askingPrice, false, bidItem, 0, address(0)));\r\n            activeItems[tokenAddress][tokenId] = true;\r\n            auctionItemId[tokenId] = newItemId;\r\n\r\n            assert(itemsForSale[newItemId - 1].id == newItemId);\r\n            emit ItemAdded(newItemId, tokenId, tokenAddress, askingPrice, bidItem);\r\n            return newItemId;\r\n        }\r\n        else{ \r\n            itemsForSale[auctionItemId[tokenId] - 1].isSold = false;\r\n            itemsForSale[auctionItemId[tokenId] - 1].bidItem = bidItem;\r\n            itemsForSale[auctionItemId[tokenId] - 1].askingPrice = askingPrice;\r\n        \r\n            assert(itemsForSale[auctionItemId[tokenId] - 1].id == auctionItemId[tokenId]);\r\n            emit ItemAdded(auctionItemId[tokenId], tokenId, tokenAddress, askingPrice, bidItem);\r\n            return auctionItemId[tokenId];\r\n        }\r\n    }\r\n    function BuyItem(uint256 id) external payable ItemExists(id) IsForSale(id) IsForInstantBuy(id) HasTransferApproval(itemsForSale[id-1].tokenAddress, itemsForSale[id-1].tokenId) {\r\n        require(msg.value >= itemsForSale[id - 1].askingPrice, \"Not enough funds set\");\r\n        require(msg.sender != itemsForSale[id - 1].seller);\r\n\r\n        itemsForSale[id - 1].isSold = true;\r\n        activeItems[itemsForSale[id - 1].tokenAddress][itemsForSale[id - 1].tokenId] = false;\r\n        IERC721(itemsForSale[id - 1].tokenAddress).safeTransferFrom(itemsForSale[id - 1].seller, msg.sender, itemsForSale[id - 1].tokenId);\r\n        itemsForSale[id - 1].seller.transfer(msg.value);\r\n\r\n        itemsForSale[id - 1].seller = payable(msg.sender);\r\n        emit ItemSold(id, msg.sender, itemsForSale[id - 1].askingPrice);\r\n    }\r\n\r\n    // put a bid on an item\r\n    // modifiers: ItemExists, IsForSale, IsForBid, HasTransferApproval\r\n    // args: auctionItemId\r\n    // check if a bid already exists, if yes: check if this bid value is higher then prev\r\n\r\n    function PlaceABid(uint256 aucItemId) external payable ItemExists(aucItemId) IsForSale(aucItemId) IsForBidding(aucItemId) HasTransferApproval(itemsForSale[aucItemId-1].tokenAddress, itemsForSale[aucItemId-1].tokenId) {\r\n        uint256 totalPrice = 0;\r\n        if (pendingReturns[msg.sender][itemsForSale[aucItemId-1].id] == 0){\r\n            totalPrice = msg.value;\r\n        }\r\n        else{\r\n            totalPrice = msg.value + pendingReturns[msg.sender][itemsForSale[aucItemId-1].id];\r\n        }\r\n        require(totalPrice > itemsForSale[aucItemId-1].askingPrice, \"There is already a higher asking price\");\r\n        require(totalPrice > itemsForSale[aucItemId-1].bidPrice, \"There is already a higher price\");\r\n\r\n        pendingReturns[msg.sender][itemsForSale[aucItemId-1].id] = 0;\r\n        if (itemsForSale[aucItemId - 1].bidPrice != 0){\r\n            pendingReturns[itemsForSale[aucItemId-1].bidderAddress][itemsForSale[aucItemId-1].id] = itemsForSale[aucItemId-1].bidPrice;\r\n        }\r\n        itemsForSale[aucItemId-1].bidPrice = totalPrice;\r\n        itemsForSale[aucItemId-1].bidderAddress = msg.sender;\r\n    \r\n        //emit event new bid placed!\r\n    }\r\n\r\n    function withdrawPrevBid(uint256 aucItemId) external returns(bool) {\r\n        uint256 amount = pendingReturns[msg.sender][aucItemId];\r\n        if (amount > 0){\r\n            pendingReturns[msg.sender][aucItemId] = 0;\r\n            if (!payable(msg.sender).send(amount)) {\r\n                // No need to call throw here, just reset the amount owing\r\n                pendingReturns[msg.sender][aucItemId] = amount;\r\n                return false;\r\n            }\r\n        }\r\n        return true;\r\n    }\r\n\r\n    //end an auction\r\n    // modifiers: ItemExists, IsForSale, IsForBid, HasTransferApproval\r\n    // args: auctionItemId\r\n    // check if a bid greater than askingPrice Exists, if yes: then,\r\n    // send funds to msg.sender and\r\n    // set ownership to bidderAddress\r\n    // set activeItems of this item to false\r\n    // set isSold to true\r\n    // set pending transaction to zero\r\n\r\n    function EndAuction(uint256 aucItemId) external payable ItemExists(aucItemId) OnlyItemOwnerAuc(aucItemId) IsForSale(aucItemId) IsForBidding(aucItemId) HasTransferApproval(itemsForSale[aucItemId-1].tokenAddress, itemsForSale[aucItemId-1].tokenId) returns(bool){\r\n        require(itemsForSale[aucItemId - 1].bidPrice > itemsForSale[aucItemId - 1].askingPrice, \"No Bids Exist!\");\r\n        // TASK: send itemsForSale[aucItemId - 1].bidPrice to itemsForSale[aucItemId - 1].seller;\r\n        if (!itemsForSale[aucItemId - 1].seller.send(itemsForSale[aucItemId - 1].bidPrice)){\r\n            return false;\r\n        }\r\n        else{\r\n            IERC721(itemsForSale[aucItemId - 1].tokenAddress).safeTransferFrom(itemsForSale[aucItemId - 1].seller, itemsForSale[aucItemId - 1].bidderAddress, itemsForSale[aucItemId - 1].tokenId);\r\n            activeItems[itemsForSale[aucItemId - 1].tokenAddress][itemsForSale[aucItemId - 1].tokenId] = false;\r\n            itemsForSale[aucItemId - 1].isSold = true;\r\n            pendingReturns[itemsForSale[aucItemId - 1].bidderAddress][itemsForSale[aucItemId - 1].tokenId] = 0;\r\n            itemsForSale[aucItemId - 1].seller = payable(itemsForSale[aucItemId - 1].bidderAddress);\r\n            itemsForSale[aucItemId - 1].bidderAddress = address(0);\r\n            itemsForSale[aucItemId - 1].bidPrice = 0;\r\n            itemsForSale[aucItemId - 1].bidItem = false;\r\n            return true;\r\n        }\r\n    }\r\n}",
  "sourcePath": "D:/Office/MarketplaceContracts/contracts/NFTMarketplace.sol",
  "compiler": {
    "name": "solc",
    "version": "0.8.6+commit.11564f7e.Emscripten.clang"
  },
  "schemaVersion": "3.4.1",
  "updatedAt": "2021-06-22T18:53:27.818Z",
  "devdoc": {
    "kind": "dev",
    "methods": {},
    "version": 1
  },
  "userdoc": {
    "kind": "user",
    "methods": {},
    "version": 1
  }
}